{
  "contractName": "MyFeedback",
  "abi": [
    {
      "constant": true,
      "inputs": [],
      "name": "name",
      "outputs": [
        {
          "name": "",
          "type": "string"
        }
      ],
      "payable": false,
      "stateMutability": "view",
      "type": "function"
    },
    {
      "constant": true,
      "inputs": [
        {
          "name": "",
          "type": "uint256"
        }
      ],
      "name": "reviewerAccts",
      "outputs": [
        {
          "name": "",
          "type": "address"
        }
      ],
      "payable": false,
      "stateMutability": "view",
      "type": "function"
    },
    {
      "constant": true,
      "inputs": [],
      "name": "owner",
      "outputs": [
        {
          "name": "",
          "type": "address"
        }
      ],
      "payable": false,
      "stateMutability": "view",
      "type": "function"
    },
    {
      "constant": true,
      "inputs": [
        {
          "name": "",
          "type": "address"
        }
      ],
      "name": "reviewers",
      "outputs": [
        {
          "name": "",
          "type": "bool"
        }
      ],
      "payable": false,
      "stateMutability": "view",
      "type": "function"
    },
    {
      "inputs": [
        {
          "name": "_name",
          "type": "string"
        }
      ],
      "payable": false,
      "stateMutability": "nonpayable",
      "type": "constructor"
    },
    {
      "anonymous": false,
      "inputs": [
        {
          "indexed": false,
          "name": "reviewer",
          "type": "address"
        },
        {
          "indexed": false,
          "name": "overallScore",
          "type": "uint256"
        }
      ],
      "name": "reviewEvent",
      "type": "event"
    },
    {
      "constant": false,
      "inputs": [
        {
          "name": "_technical",
          "type": "uint256"
        },
        {
          "name": "_comment_technical",
          "type": "string"
        },
        {
          "name": "_communication",
          "type": "uint256"
        },
        {
          "name": "_comment_communication",
          "type": "string"
        },
        {
          "name": "_overall",
          "type": "uint256"
        },
        {
          "name": "_comment_overall",
          "type": "string"
        }
      ],
      "name": "setReview",
      "outputs": [],
      "payable": false,
      "stateMutability": "nonpayable",
      "type": "function"
    },
    {
      "constant": true,
      "inputs": [
        {
          "name": "index",
          "type": "uint256"
        }
      ],
      "name": "getReview",
      "outputs": [
        {
          "name": "",
          "type": "uint256"
        },
        {
          "name": "",
          "type": "uint256"
        },
        {
          "name": "",
          "type": "uint256"
        },
        {
          "name": "",
          "type": "string"
        },
        {
          "name": "",
          "type": "string"
        },
        {
          "name": "",
          "type": "string"
        }
      ],
      "payable": false,
      "stateMutability": "view",
      "type": "function"
    },
    {
      "constant": true,
      "inputs": [],
      "name": "totalReviewers",
      "outputs": [
        {
          "name": "",
          "type": "uint256"
        }
      ],
      "payable": false,
      "stateMutability": "view",
      "type": "function"
    }
  ],
  "bytecode": "0x60806040523480156200001157600080fd5b50604051620013bb380380620013bb833981018060405260208110156200003757600080fd5b8101908080516401000000008111156200005057600080fd5b828101905060208101848111156200006757600080fd5b81518560018202830111640100000000821117156200008557600080fd5b5050929190505050336000806101000a81548173ffffffffffffffffffffffffffffffffffffffff021916908373ffffffffffffffffffffffffffffffffffffffff1602179055508060019080519060200190620000e5929190620000ed565b50506200019c565b828054600181600116156101000203166002900490600052602060002090601f016020900481019282601f106200013057805160ff191683800117855562000161565b8280016001018555821562000161579182015b828111156200016057825182559160200191906001019062000143565b5b50905062000170919062000174565b5090565b6200019991905b80821115620001955760008160009055506001016200017b565b5090565b90565b61120f80620001ac6000396000f3fe608060405234801561001057600080fd5b506004361061007d5760003560e01c8063990581b61161005b578063990581b6146101bd578063d9e87eac14610351578063f7cbb1b21461036f578063fd08325f146103cb5761007d565b806306fdde0314610082578063324903ae146101055780638da5cb5b14610173575b600080fd5b61008a6105d2565b6040518080602001828103825283818151815260200191508051906020019080838360005b838110156100ca5780820151818401526020810190506100af565b50505050905090810190601f1680156100f75780820380516001836020036101000a031916815260200191505b509250505060405180910390f35b6101316004803603602081101561011b57600080fd5b8101908080359060200190929190505050610670565b604051808273ffffffffffffffffffffffffffffffffffffffff1673ffffffffffffffffffffffffffffffffffffffff16815260200191505060405180910390f35b61017b6106ac565b604051808273ffffffffffffffffffffffffffffffffffffffff1673ffffffffffffffffffffffffffffffffffffffff16815260200191505060405180910390f35b6101e9600480360360208110156101d357600080fd5b81019080803590602001909291905050506106d1565b60405180878152602001868152602001858152602001806020018060200180602001848103845287818151815260200191508051906020019080838360005b83811015610243578082015181840152602081019050610228565b50505050905090810190601f1680156102705780820380516001836020036101000a031916815260200191505b50848103835286818151815260200191508051906020019080838360005b838110156102a957808201518184015260208101905061028e565b50505050905090810190601f1680156102d65780820380516001836020036101000a031916815260200191505b50848103825285818151815260200191508051906020019080838360005b8381101561030f5780820151818401526020810190506102f4565b50505050905090810190601f16801561033c5780820380516001836020036101000a031916815260200191505b50995050505050505050505060405180910390f35b610359610c42565b6040518082815260200191505060405180910390f35b6103b16004803603602081101561038557600080fd5b81019080803573ffffffffffffffffffffffffffffffffffffffff169060200190929190505050610c4f565b604051808215151515815260200191505060405180910390f35b6105d0600480360360c08110156103e157600080fd5b81019080803590602001909291908035906020019064010000000081111561040857600080fd5b82018360208201111561041a57600080fd5b8035906020019184600183028401116401000000008311171561043c57600080fd5b91908080601f016020809104026020016040519081016040528093929190818152602001838380828437600081840152601f19601f82011690508083019250505050505050919291929080359060200190929190803590602001906401000000008111156104a957600080fd5b8201836020820111156104bb57600080fd5b803590602001918460018302840111640100000000831117156104dd57600080fd5b91908080601f016020809104026020016040519081016040528093929190818152602001838380828437600081840152601f19601f820116905080830192505050505050509192919290803590602001909291908035906020019064010000000081111561054a57600080fd5b82018360208201111561055c57600080fd5b8035906020019184600183028401116401000000008311171561057e57600080fd5b91908080601f016020809104026020016040519081016040528093929190818152602001838380828437600081840152601f19601f820116905080830192505050505050509192919290505050610c6f565b005b60018054600181600116156101000203166002900480601f0160208091040260200160405190810160405280929190818152602001828054600181600116156101000203166002900480156106685780601f1061063d57610100808354040283529160200191610668565b820191906000526020600020905b81548152906001019060200180831161064b57829003601f168201915b505050505081565b6003818154811061067d57fe5b906000526020600020016000915054906101000a900473ffffffffffffffffffffffffffffffffffffffff1681565b6000809054906101000a900473ffffffffffffffffffffffffffffffffffffffff1681565b600080600060608060606000809054906101000a900473ffffffffffffffffffffffffffffffffffffffff1673ffffffffffffffffffffffffffffffffffffffff163373ffffffffffffffffffffffffffffffffffffffff1614610780576040517f08c379a00000000000000000000000000000000000000000000000000000000081526004018080602001828103825260258152602001806111996025913960400191505060405180910390fd5b600260006003898154811061079157fe5b9060005260206000200160009054906101000a900473ffffffffffffffffffffffffffffffffffffffff1673ffffffffffffffffffffffffffffffffffffffff1673ffffffffffffffffffffffffffffffffffffffff168152602001908152602001600020600001546002600060038a8154811061080b57fe5b9060005260206000200160009054906101000a900473ffffffffffffffffffffffffffffffffffffffff1673ffffffffffffffffffffffffffffffffffffffff1673ffffffffffffffffffffffffffffffffffffffff168152602001908152602001600020600101546002600060038b8154811061088557fe5b9060005260206000200160009054906101000a900473ffffffffffffffffffffffffffffffffffffffff1673ffffffffffffffffffffffffffffffffffffffff1673ffffffffffffffffffffffffffffffffffffffff168152602001908152602001600020600201546002600060038c815481106108ff57fe5b9060005260206000200160009054906101000a900473ffffffffffffffffffffffffffffffffffffffff1673ffffffffffffffffffffffffffffffffffffffff1673ffffffffffffffffffffffffffffffffffffffff1681526020019081526020016000206004016002600060038d8154811061097857fe5b9060005260206000200160009054906101000a900473ffffffffffffffffffffffffffffffffffffffff1673ffffffffffffffffffffffffffffffffffffffff1673ffffffffffffffffffffffffffffffffffffffff1681526020019081526020016000206003016002600060038e815481106109f157fe5b9060005260206000200160009054906101000a900473ffffffffffffffffffffffffffffffffffffffff1673ffffffffffffffffffffffffffffffffffffffff1673ffffffffffffffffffffffffffffffffffffffff168152602001908152602001600020600501828054600181600116156101000203166002900480601f016020809104026020016040519081016040528092919081815260200182805460018160011615610100020316600290048015610aee5780601f10610ac357610100808354040283529160200191610aee565b820191906000526020600020905b815481529060010190602001808311610ad157829003601f168201915b50505050509250818054600181600116156101000203166002900480601f016020809104026020016040519081016040528092919081815260200182805460018160011615610100020316600290048015610b8a5780601f10610b5f57610100808354040283529160200191610b8a565b820191906000526020600020905b815481529060010190602001808311610b6d57829003601f168201915b50505050509150808054600181600116156101000203166002900480601f016020809104026020016040519081016040528092919081815260200182805460018160011615610100020316600290048015610c265780601f10610bfb57610100808354040283529160200191610c26565b820191906000526020600020905b815481529060010190602001808311610c0957829003601f168201915b5050505050905095509550955095509550955091939550919395565b6000600380549050905090565b60046020528060005260406000206000915054906101000a900460ff1681565b60011515600260003373ffffffffffffffffffffffffffffffffffffffff1673ffffffffffffffffffffffffffffffffffffffff16815260200190815260200160002060060160009054906101000a900460ff1615151415610d39576040517f08c379a000000000000000000000000000000000000000000000000000000000815260040180806020018281038252601c8152602001807f43616e6e6f7420726576696577206d6f7265207468616e206f6e63650000000081525060200191505060405180910390fd5b6000809054906101000a900473ffffffffffffffffffffffffffffffffffffffff1673ffffffffffffffffffffffffffffffffffffffff163373ffffffffffffffffffffffffffffffffffffffff161415610ddf576040517f08c379a00000000000000000000000000000000000000000000000000000000081526004018080602001828103825260268152602001806111be6026913960400191505060405180910390fd5b60058611158015610df1575060058411155b8015610dfe575060058211155b610e70576040517f08c379a000000000000000000000000000000000000000000000000000000000815260040180806020018281038252601d8152602001807f53636f7265206d757374206265206265747765656e203120616e64203500000081525060200191505060405180910390fd5b6040518060e0016040528087815260200185815260200183815260200184815260200186815260200182815260200160011515815250600260003373ffffffffffffffffffffffffffffffffffffffff1673ffffffffffffffffffffffffffffffffffffffff1681526020019081526020016000206000820151816000015560208201518160010155604082015181600201556060820151816003019080519060200190610f1f9291906110f3565b506080820151816004019080519060200190610f3c9291906110f3565b5060a0820151816005019080519060200190610f599291906110f3565b5060c08201518160060160006101000a81548160ff021916908315150217905550905050600160033390806001815401808255809150509060018203906000526020600020016000909192909190916101000a81548173ffffffffffffffffffffffffffffffffffffffff021916908373ffffffffffffffffffffffffffffffffffffffff16021790555050506001600460003373ffffffffffffffffffffffffffffffffffffffff1673ffffffffffffffffffffffffffffffffffffffff16815260200190815260200160002060006101000a81548160ff0219169083151502179055507f6eae8a58075015ba0e46191705906ec893d51b57f57d90cff313530e68ff3e4433600260003373ffffffffffffffffffffffffffffffffffffffff1673ffffffffffffffffffffffffffffffffffffffff16815260200190815260200160002060020154604051808373ffffffffffffffffffffffffffffffffffffffff1673ffffffffffffffffffffffffffffffffffffffff1681526020018281526020019250505060405180910390a1505050505050565b828054600181600116156101000203166002900490600052602060002090601f016020900481019282601f1061113457805160ff1916838001178555611162565b82800160010185558215611162579182015b82811115611161578251825591602001919060010190611146565b5b50905061116f9190611173565b5090565b61119591905b80821115611191576000816000905550600101611179565b5090565b9056fe4f6e6c7920746865206f776e65722063616e2063616c6c20746869732066756e6374696f6e4f6e6c7920612072657669657765722063616e2063616c6c20746869732066756e6374696f6ea165627a7a72305820056f748f6b9016b85e87f03aae6d43d226c19a49ed5f005912212a6b6d0b3fd50029",
  "source": "/*\nMyFeedback.sol:\n\nThis smart contract is deployed by an individual who is requesting feedback for a performance review. \nOnce deployed by the user, only this user can retrieve and read feedback given by others. \nAdditionally, only users other than the owner can leave feedback.\n\nFront end:\n\nThis is where I need help. I need a very simple front end which connects to a ganache instance via  metamask and  has the following capabilities. \n\n- any user can deploy an instance of the contract to the blockchain. this account  will be the owner.\n- once deployed,  the contract  instance name can be selected in UI\n-  if the account  is the same as the account that  deployed the  contract, selecting the contract will view the feedback.\n- if the account is different  than the account that deployed  the contract, selecting the contract will display a feedback form.\n-  include transaction link and records for any contract calls  or creation\n*/\n\npragma solidity 0.5.8;\n\ncontract MyFeedback {\n    \n    address public owner;\n    string public name;\n    \n    constructor (string memory _name) public {\n        owner = msg.sender;\n        name = _name;\n    }\n    \n    struct Review {\n        uint technicalScore;\n        uint communicationScore;\n        uint overallScore;\n        string comment_communication;\n        string comment_technical;\n        string comment_overall;\n        bool alreadyReviewed;\n    }\n    \n    mapping  (address => Review) reviewer;\n    address [] public reviewerAccts;\n    mapping(address => bool) public reviewers;\n    \n    modifier onlyOwner {\n        require(msg.sender == owner, 'Only the owner can call this function');\n        _;\n    }\n    \n    modifier notOwner {\n        require(msg.sender != owner, 'Only a reviewer can call this function');\n        _;\n    }    \n    \n    modifier notAlreadyReviewed {\n        require(reviewer[msg.sender].alreadyReviewed != true, 'Cannot review more than once');\n        _;\n    }\n    \n    \n    event reviewEvent(address reviewer, uint overallScore);\n    \n    function setReview(uint _technical, string memory _comment_technical,\n        uint _communication, string memory _comment_communication,  \n        uint _overall, string memory _comment_overall) notAlreadyReviewed notOwner public {\n            require(_technical <= 5 && _communication <= 5 && _overall <= 5, 'Score must be between 1 and 5');\n            reviewer[msg.sender] = Review(_technical, _communication, _overall, _comment_communication, _comment_technical, _comment_overall, true);\n            reviewerAccts.push(msg.sender) -1;\n            reviewers[msg.sender] = true;\n            emit reviewEvent(msg.sender, reviewer[msg.sender].overallScore);\n        }\n    \n    function getReview(uint index) onlyOwner public view returns(uint, uint, uint, string memory, string memory, string  memory) {\n        return (reviewer[reviewerAccts[index]].technicalScore, \n        reviewer[reviewerAccts[index]].communicationScore, \n        reviewer[reviewerAccts[index]].overallScore,\n        reviewer[reviewerAccts[index]].comment_technical,\n        reviewer[reviewerAccts[index]].comment_communication,\n        reviewer[reviewerAccts[index]].comment_overall);\n    }\n    \n    function totalReviewers() public view returns (uint){\n        return reviewerAccts.length;\n    }\n    \n}",
  "sourcePath": "/Users/willshu/Projects/blockchain/eth/MyFeedback/contracts/MyFeedback.sol",
  "compiler": {
    "name": "solc",
    "version": "0.5.8+commit.23d335f2.Emscripten.clang"
  },
  "schemaVersion": "3.0.11",
  "updatedAt": "2019-07-09T16:08:52.840Z",
  "devdoc": {
    "methods": {}
  },
  "userdoc": {
    "methods": {}
  }
}